{
  "_format": "hh-sol-artifact-1",
  "contractName": "SuperPlay",
  "sourceName": "contracts/SuperPlay.sol",
  "abi": [
    {
      "inputs": [
        {
          "internalType": "contract ISuperTokenFactory",
          "name": "_superTokenFactory",
          "type": "address"
        }
      ],
      "stateMutability": "nonpayable",
      "type": "constructor"
    },
    {
      "anonymous": false,
      "inputs": [
        {
          "indexed": true,
          "internalType": "uint256",
          "name": "gameId",
          "type": "uint256"
        },
        {
          "indexed": false,
          "internalType": "contract ERC20WithTokenInfo",
          "name": "token",
          "type": "address"
        },
        {
          "indexed": false,
          "internalType": "contract ISuperToken",
          "name": "superToken",
          "type": "address"
        },
        {
          "indexed": false,
          "internalType": "int96",
          "name": "rate",
          "type": "int96"
        }
      ],
      "name": "GameCreated",
      "type": "event"
    },
    {
      "anonymous": false,
      "inputs": [
        {
          "indexed": true,
          "internalType": "address",
          "name": "previousOwner",
          "type": "address"
        },
        {
          "indexed": true,
          "internalType": "address",
          "name": "newOwner",
          "type": "address"
        }
      ],
      "name": "OwnershipTransferred",
      "type": "event"
    },
    {
      "anonymous": false,
      "inputs": [
        {
          "indexed": true,
          "internalType": "uint256",
          "name": "gameId",
          "type": "uint256"
        },
        {
          "indexed": true,
          "internalType": "address",
          "name": "user",
          "type": "address"
        }
      ],
      "name": "Register",
      "type": "event"
    },
    {
      "anonymous": false,
      "inputs": [
        {
          "indexed": true,
          "internalType": "uint256",
          "name": "gameId",
          "type": "uint256"
        },
        {
          "indexed": true,
          "internalType": "address",
          "name": "user",
          "type": "address"
        }
      ],
      "name": "Unregister",
      "type": "event"
    },
    {
      "inputs": [
        {
          "internalType": "contract ERC20WithTokenInfo",
          "name": "token",
          "type": "address"
        },
        {
          "internalType": "int96",
          "name": "rate",
          "type": "int96"
        },
        {
          "internalType": "address",
          "name": "receiver",
          "type": "address"
        }
      ],
      "name": "createGame",
      "outputs": [
        {
          "internalType": "uint256",
          "name": "gameId",
          "type": "uint256"
        }
      ],
      "stateMutability": "nonpayable",
      "type": "function"
    },
    {
      "inputs": [
        {
          "internalType": "contract ISuperToken",
          "name": "superToken",
          "type": "address"
        },
        {
          "internalType": "int96",
          "name": "rate",
          "type": "int96"
        },
        {
          "internalType": "address",
          "name": "receiver",
          "type": "address"
        }
      ],
      "name": "createGameWithSuperToken",
      "outputs": [
        {
          "internalType": "uint256",
          "name": "gameId",
          "type": "uint256"
        }
      ],
      "stateMutability": "nonpayable",
      "type": "function"
    },
    {
      "inputs": [
        {
          "internalType": "uint256",
          "name": "",
          "type": "uint256"
        }
      ],
      "name": "games",
      "outputs": [
        {
          "internalType": "contract ISuperToken",
          "name": "token",
          "type": "address"
        },
        {
          "internalType": "int96",
          "name": "rate",
          "type": "int96"
        },
        {
          "internalType": "address",
          "name": "receiver",
          "type": "address"
        }
      ],
      "stateMutability": "view",
      "type": "function"
    },
    {
      "inputs": [
        {
          "internalType": "uint256",
          "name": "gameId",
          "type": "uint256"
        },
        {
          "internalType": "address",
          "name": "user",
          "type": "address"
        }
      ],
      "name": "getFlowInfo",
      "outputs": [
        {
          "internalType": "uint256",
          "name": "timestamp",
          "type": "uint256"
        },
        {
          "internalType": "int96",
          "name": "flowRate",
          "type": "int96"
        },
        {
          "internalType": "uint256",
          "name": "deposit",
          "type": "uint256"
        }
      ],
      "stateMutability": "view",
      "type": "function"
    },
    {
      "inputs": [],
      "name": "owner",
      "outputs": [
        {
          "internalType": "address",
          "name": "",
          "type": "address"
        }
      ],
      "stateMutability": "view",
      "type": "function"
    },
    {
      "inputs": [
        {
          "internalType": "uint256",
          "name": "gameId",
          "type": "uint256"
        }
      ],
      "name": "registerForGame",
      "outputs": [],
      "stateMutability": "nonpayable",
      "type": "function"
    },
    {
      "inputs": [],
      "name": "renounceOwnership",
      "outputs": [],
      "stateMutability": "nonpayable",
      "type": "function"
    },
    {
      "inputs": [
        {
          "internalType": "address",
          "name": "newOwner",
          "type": "address"
        }
      ],
      "name": "transferOwnership",
      "outputs": [],
      "stateMutability": "nonpayable",
      "type": "function"
    },
    {
      "inputs": [
        {
          "internalType": "uint256",
          "name": "gameId",
          "type": "uint256"
        }
      ],
      "name": "unregisterForGame",
      "outputs": [],
      "stateMutability": "nonpayable",
      "type": "function"
    }
  ],
  "bytecode": "0x60806040523480156200001157600080fd5b5060405162002541380380620025418339818101604052810190620000379190620001e9565b620000576200004b6200009f60201b60201c565b620000a760201b60201c565b80600260006101000a81548173ffffffffffffffffffffffffffffffffffffffff021916908373ffffffffffffffffffffffffffffffffffffffff160217905550506200021b565b600033905090565b60008060009054906101000a900473ffffffffffffffffffffffffffffffffffffffff169050816000806101000a81548173ffffffffffffffffffffffffffffffffffffffff021916908373ffffffffffffffffffffffffffffffffffffffff1602179055508173ffffffffffffffffffffffffffffffffffffffff168173ffffffffffffffffffffffffffffffffffffffff167f8be0079c531659141344cd1fd0a4f28419497f9722a3daafe3b4186f6b6457e060405160405180910390a35050565b600080fd5b600073ffffffffffffffffffffffffffffffffffffffff82169050919050565b60006200019d8262000170565b9050919050565b6000620001b18262000190565b9050919050565b620001c381620001a4565b8114620001cf57600080fd5b50565b600081519050620001e381620001b8565b92915050565b6000602082840312156200020257620002016200016b565b5b60006200021284828501620001d2565b91505092915050565b612316806200022b6000396000f3fe608060405234801561001057600080fd5b50600436106100935760003560e01c80636aa7dad2116100665780636aa7dad214610134578063715018a6146101645780638da5cb5b1461016e578063cb8a4bde1461018c578063f2fde38b146101bc57610093565b8063117a5b90146100985780631ddba383146100ca5780633017f27c146100e65780636054a08d14610102575b600080fd5b6100b260048036038101906100ad9190611671565b6101d8565b6040516100c19392919061175a565b60405180910390f35b6100e460048036038101906100df9190611671565b61025f565b005b61010060048036038101906100fb9190611671565b6103d5565b005b61011c600480360381019061011791906117bd565b610551565b60405161012b9392919061180c565b60405180910390f35b61014e600480360381019061014991906118ad565b61061f565b60405161015b9190611900565b60405180910390f35b61016c61081f565b005b610176610833565b604051610183919061191b565b60405180910390f35b6101a660048036038101906101a19190611974565b61085c565b6040516101b39190611900565b60405180910390f35b6101d660048036038101906101d191906119c7565b610b7d565b005b600181815481106101e857600080fd5b90600052602060002090600202016000915090508060000160009054906101000a900473ffffffffffffffffffffffffffffffffffffffff16908060000160149054906101000a9004600b0b908060010160009054906101000a900473ffffffffffffffffffffffffffffffffffffffff16905083565b600060018281548110610275576102746119f4565b5b90600052602060002090600202016040518060600160405290816000820160009054906101000a900473ffffffffffffffffffffffffffffffffffffffff1673ffffffffffffffffffffffffffffffffffffffff1673ffffffffffffffffffffffffffffffffffffffff1681526020016000820160149054906101000a9004600b0b600b0b600b0b81526020016001820160009054906101000a900473ffffffffffffffffffffffffffffffffffffffff1673ffffffffffffffffffffffffffffffffffffffff1673ffffffffffffffffffffffffffffffffffffffff1681525050905061038c338260400151836000015173ffffffffffffffffffffffffffffffffffffffff16610c009092919063ffffffff16565b503373ffffffffffffffffffffffffffffffffffffffff16827f1bcd6ca465891f146fd31c5dc97f7c1639a9e89d8dc8a5cb5e869533f88cf42160405160405180910390a35050565b6000600182815481106103eb576103ea6119f4565b5b90600052602060002090600202016040518060600160405290816000820160009054906101000a900473ffffffffffffffffffffffffffffffffffffffff1673ffffffffffffffffffffffffffffffffffffffff1673ffffffffffffffffffffffffffffffffffffffff1681526020016000820160149054906101000a9004600b0b600b0b600b0b81526020016001820160009054906101000a900473ffffffffffffffffffffffffffffffffffffffff1673ffffffffffffffffffffffffffffffffffffffff1673ffffffffffffffffffffffffffffffffffffffff168152505090506105083382604001518360200151846000015173ffffffffffffffffffffffffffffffffffffffff16610db3909392919063ffffffff16565b503373ffffffffffffffffffffffffffffffffffffffff16827fa902c0ee3df5ddb3d1ab80437a22cd86a19a2295f7c96c5e387ea29d9d0bfaad60405160405180910390a35050565b600080600061060b846001878154811061056e5761056d6119f4565b5b906000526020600020906002020160010160009054906101000a900473ffffffffffffffffffffffffffffffffffffffff16600188815481106105b4576105b36119f4565b5b906000526020600020906002020160000160009054906101000a900473ffffffffffffffffffffffffffffffffffffffff1673ffffffffffffffffffffffffffffffffffffffff16610f699092919063ffffffff16565b508093508194508295505050509250925092565b60006001805490509050600060405180606001604052808673ffffffffffffffffffffffffffffffffffffffff16815260200185600b0b81526020018473ffffffffffffffffffffffffffffffffffffffff168152509050600181908060018154018082558091505060019003906000526020600020906002020160009091909190915060008201518160000160006101000a81548173ffffffffffffffffffffffffffffffffffffffff021916908373ffffffffffffffffffffffffffffffffffffffff16021790555060208201518160000160146101000a8154816bffffffffffffffffffffffff0219169083600b0b6bffffffffffffffffffffffff16021790555060408201518160010160006101000a81548173ffffffffffffffffffffffffffffffffffffffff021916908373ffffffffffffffffffffffffffffffffffffffff1602179055505050817f163da870373b7f70298d0b63302c16a110716216454c62640a8306998fa626df8673ffffffffffffffffffffffffffffffffffffffff1663ee719bc86040518163ffffffff1660e01b8152600401602060405180830381865afa1580156107da573d6000803e3d6000fd5b505050506040513d601f19601f820116820180604052508101906107fe9190611a38565b878760405161080f93929190611a86565b60405180910390a2509392505050565b610827611015565b6108316000611093565b565b60008060009054906101000a900473ffffffffffffffffffffffffffffffffffffffff16905090565b600080600260009054906101000a900473ffffffffffffffffffffffffffffffffffffffff1673ffffffffffffffffffffffffffffffffffffffff1663431f14818660018873ffffffffffffffffffffffffffffffffffffffff166306fdde036040518163ffffffff1660e01b8152600401600060405180830381865afa1580156108eb573d6000803e3d6000fd5b505050506040513d6000823e3d601f19601f820116820180604052508101906109149190611c1e565b8973ffffffffffffffffffffffffffffffffffffffff166395d89b416040518163ffffffff1660e01b8152600401600060405180830381865afa15801561095f573d6000803e3d6000fd5b505050506040513d6000823e3d601f19601f820116820180604052508101906109889190611c1e565b6040518563ffffffff1660e01b81526004016109a79493929190611d33565b6020604051808303816000875af11580156109c6573d6000803e3d6000fd5b505050506040513d601f19601f820116820180604052508101906109ea9190611d9b565b90506001805490509150600060405180606001604052808373ffffffffffffffffffffffffffffffffffffffff16815260200186600b0b81526020018573ffffffffffffffffffffffffffffffffffffffff168152509050600181908060018154018082558091505060019003906000526020600020906002020160009091909190915060008201518160000160006101000a81548173ffffffffffffffffffffffffffffffffffffffff021916908373ffffffffffffffffffffffffffffffffffffffff16021790555060208201518160000160146101000a8154816bffffffffffffffffffffffff0219169083600b0b6bffffffffffffffffffffffff16021790555060408201518160010160006101000a81548173ffffffffffffffffffffffffffffffffffffffff021916908373ffffffffffffffffffffffffffffffffffffffff1602179055505050827f163da870373b7f70298d0b63302c16a110716216454c62640a8306998fa626df878488604051610b6c93929190611a86565b60405180910390a250509392505050565b610b85611015565b600073ffffffffffffffffffffffffffffffffffffffff168173ffffffffffffffffffffffffffffffffffffffff1603610bf4576040517f08c379a0000000000000000000000000000000000000000000000000000000008152600401610beb90611e3a565b60405180910390fd5b610bfd81611093565b50565b6000806000610c0e86611157565b915091508173ffffffffffffffffffffffffffffffffffffffff166339255d5b828373ffffffffffffffffffffffffffffffffffffffff16634c8b181f8a8a8a600067ffffffffffffffff811115610c6957610c68611ad8565b5b6040519080825280601f01601f191660200182016040528015610c9b5781602001600182028036833780820191505090505b50604051602401610caf9493929190611eaf565b604051602081830303815290604052915060e01b6020820180517bffffffffffffffffffffffffffffffffffffffffffffffffffffffff8381831617835250505050600067ffffffffffffffff811115610d0c57610d0b611ad8565b5b6040519080825280601f01601f191660200182016040528015610d3e5781602001600182028036833780820191505090505b506040518463ffffffff1660e01b8152600401610d5d93929190611f1c565b6000604051808303816000875af1158015610d7c573d6000803e3d6000fd5b505050506040513d6000823e3d601f19601f82011682018060405250810190610da59190612002565b506001925050509392505050565b6000806000610dc187611157565b915091508173ffffffffffffffffffffffffffffffffffffffff166339255d5b828373ffffffffffffffffffffffffffffffffffffffff166394229ecb8b8b8b8b600067ffffffffffffffff811115610e1d57610e1c611ad8565b5b6040519080825280601f01601f191660200182016040528015610e4f5781602001600182028036833780820191505090505b50604051602401610e6495949392919061204b565b604051602081830303815290604052915060e01b6020820180517bffffffffffffffffffffffffffffffffffffffffffffffffffffffff8381831617835250505050600067ffffffffffffffff811115610ec157610ec0611ad8565b5b6040519080825280601f01601f191660200182016040528015610ef35781602001600182028036833780820191505090505b506040518463ffffffff1660e01b8152600401610f1293929190611f1c565b6000604051808303816000875af1158015610f31573d6000803e3d6000fd5b505050506040513d6000823e3d601f19601f82011682018060405250810190610f5a9190612002565b50600192505050949350505050565b6000806000806000610f7a886113de565b9150508073ffffffffffffffffffffffffffffffffffffffff1663e6a1e8888989896040518463ffffffff1660e01b8152600401610fba939291906120a5565b608060405180830381865afa158015610fd7573d6000803e3d6000fd5b505050506040513d601f19601f82011682018060405250810190610ffb9190612106565b809550819650829750839850505050505093509350935093565b61101d61161f565b73ffffffffffffffffffffffffffffffffffffffff1661103b610833565b73ffffffffffffffffffffffffffffffffffffffff1614611091576040517f08c379a0000000000000000000000000000000000000000000000000000000008152600401611088906121b9565b60405180910390fd5b565b60008060009054906101000a900473ffffffffffffffffffffffffffffffffffffffff169050816000806101000a81548173ffffffffffffffffffffffffffffffffffffffff021916908373ffffffffffffffffffffffffffffffffffffffff1602179055508173ffffffffffffffffffffffffffffffffffffffff168173ffffffffffffffffffffffffffffffffffffffff167f8be0079c531659141344cd1fd0a4f28419497f9722a3daafe3b4186f6b6457e060405160405180910390a35050565b6000807f65599bf746e17a00ea62e3610586992d88101b78eec3cf380706621fb97ea8375491507fb969d79d88acd02d04ed7ee7d43b949e7daf093d363abcfbbc43dfdfd1ce969a549050600073ffffffffffffffffffffffffffffffffffffffff168173ffffffffffffffffffffffffffffffffffffffff160361135f57600073ffffffffffffffffffffffffffffffffffffffff168273ffffffffffffffffffffffffffffffffffffffff160361127c578273ffffffffffffffffffffffffffffffffffffffff166320bc44256040518163ffffffff1660e01b8152600401602060405180830381865afa158015611255573d6000803e3d6000fd5b505050506040513d601f19601f820116820180604052508101906112799190611a38565b91505b8173ffffffffffffffffffffffffffffffffffffffff1663b6d200de7fa9214cc96615e0085d3bb077758db69497dc2dce3b2b1e97bc93c3d18d83efd36040518263ffffffff1660e01b81526004016112d5919061222b565b602060405180830381865afa1580156112f2573d6000803e3d6000fd5b505050506040513d601f19601f820116820180604052508101906113169190612284565b9050817f65599bf746e17a00ea62e3610586992d88101b78eec3cf380706621fb97ea83755807fb969d79d88acd02d04ed7ee7d43b949e7daf093d363abcfbbc43dfdfd1ce969a555b600073ffffffffffffffffffffffffffffffffffffffff168273ffffffffffffffffffffffffffffffffffffffff160361139c5761139b6122b1565b5b600073ffffffffffffffffffffffffffffffffffffffff168173ffffffffffffffffffffffffffffffffffffffff16036113d9576113d86122b1565b5b915091565b6000807f65599bf746e17a00ea62e3610586992d88101b78eec3cf380706621fb97ea8375491507fb969d79d88acd02d04ed7ee7d43b949e7daf093d363abcfbbc43dfdfd1ce969a549050600073ffffffffffffffffffffffffffffffffffffffff168173ffffffffffffffffffffffffffffffffffffffff16036115a057600073ffffffffffffffffffffffffffffffffffffffff168273ffffffffffffffffffffffffffffffffffffffff1603611503578273ffffffffffffffffffffffffffffffffffffffff166320bc44256040518163ffffffff1660e01b8152600401602060405180830381865afa1580156114dc573d6000803e3d6000fd5b505050506040513d601f19601f820116820180604052508101906115009190611a38565b91505b8173ffffffffffffffffffffffffffffffffffffffff1663b6d200de7fa9214cc96615e0085d3bb077758db69497dc2dce3b2b1e97bc93c3d18d83efd36040518263ffffffff1660e01b815260040161155c919061222b565b602060405180830381865afa158015611579573d6000803e3d6000fd5b505050506040513d601f19601f8201168201806040525081019061159d9190612284565b90505b600073ffffffffffffffffffffffffffffffffffffffff168273ffffffffffffffffffffffffffffffffffffffff16036115dd576115dc6122b1565b5b600073ffffffffffffffffffffffffffffffffffffffff168173ffffffffffffffffffffffffffffffffffffffff160361161a576116196122b1565b5b915091565b600033905090565b6000604051905090565b600080fd5b600080fd5b6000819050919050565b61164e8161163b565b811461165957600080fd5b50565b60008135905061166b81611645565b92915050565b60006020828403121561168757611686611631565b5b60006116958482850161165c565b91505092915050565b600073ffffffffffffffffffffffffffffffffffffffff82169050919050565b6000819050919050565b60006116e36116de6116d98461169e565b6116be565b61169e565b9050919050565b60006116f5826116c8565b9050919050565b6000611707826116ea565b9050919050565b611717816116fc565b82525050565b600081600b0b9050919050565b6117338161171d565b82525050565b60006117448261169e565b9050919050565b61175481611739565b82525050565b600060608201905061176f600083018661170e565b61177c602083018561172a565b611789604083018461174b565b949350505050565b61179a81611739565b81146117a557600080fd5b50565b6000813590506117b781611791565b92915050565b600080604083850312156117d4576117d3611631565b5b60006117e28582860161165c565b92505060206117f3858286016117a8565b9150509250929050565b6118068161163b565b82525050565b600060608201905061182160008301866117fd565b61182e602083018561172a565b61183b60408301846117fd565b949350505050565b600061184e82611739565b9050919050565b61185e81611843565b811461186957600080fd5b50565b60008135905061187b81611855565b92915050565b61188a8161171d565b811461189557600080fd5b50565b6000813590506118a781611881565b92915050565b6000806000606084860312156118c6576118c5611631565b5b60006118d48682870161186c565b93505060206118e586828701611898565b92505060406118f6868287016117a8565b9150509250925092565b600060208201905061191560008301846117fd565b92915050565b6000602082019050611930600083018461174b565b92915050565b600061194182611739565b9050919050565b61195181611936565b811461195c57600080fd5b50565b60008135905061196e81611948565b92915050565b60008060006060848603121561198d5761198c611631565b5b600061199b8682870161195f565b93505060206119ac86828701611898565b92505060406119bd868287016117a8565b9150509250925092565b6000602082840312156119dd576119dc611631565b5b60006119eb848285016117a8565b91505092915050565b7f4e487b7100000000000000000000000000000000000000000000000000000000600052603260045260246000fd5b600081519050611a3281611791565b92915050565b600060208284031215611a4e57611a4d611631565b5b6000611a5c84828501611a23565b91505092915050565b6000611a70826116ea565b9050919050565b611a8081611a65565b82525050565b6000606082019050611a9b6000830186611a77565b611aa8602083018561170e565b611ab5604083018461172a565b949350505050565b600080fd5b600080fd5b6000601f19601f8301169050919050565b7f4e487b7100000000000000000000000000000000000000000000000000000000600052604160045260246000fd5b611b1082611ac7565b810181811067ffffffffffffffff82111715611b2f57611b2e611ad8565b5b80604052505050565b6000611b42611627565b9050611b4e8282611b07565b919050565b600067ffffffffffffffff821115611b6e57611b6d611ad8565b5b611b7782611ac7565b9050602081019050919050565b60005b83811015611ba2578082015181840152602081019050611b87565b60008484015250505050565b6000611bc1611bbc84611b53565b611b38565b905082815260208101848484011115611bdd57611bdc611ac2565b5b611be8848285611b84565b509392505050565b600082601f830112611c0557611c04611abd565b5b8151611c15848260208601611bae565b91505092915050565b600060208284031215611c3457611c33611631565b5b600082015167ffffffffffffffff811115611c5257611c51611636565b5b611c5e84828501611bf0565b91505092915050565b7f4e487b7100000000000000000000000000000000000000000000000000000000600052602160045260246000fd5b60038110611ca757611ca6611c67565b5b50565b6000819050611cb882611c96565b919050565b6000611cc882611caa565b9050919050565b611cd881611cbd565b82525050565b600081519050919050565b600082825260208201905092915050565b6000611d0582611cde565b611d0f8185611ce9565b9350611d1f818560208601611b84565b611d2881611ac7565b840191505092915050565b6000608082019050611d486000830187611a77565b611d556020830186611ccf565b8181036040830152611d678185611cfa565b90508181036060830152611d7b8184611cfa565b905095945050505050565b600081519050611d9581611855565b92915050565b600060208284031215611db157611db0611631565b5b6000611dbf84828501611d86565b91505092915050565b7f4f776e61626c653a206e6577206f776e657220697320746865207a65726f206160008201527f6464726573730000000000000000000000000000000000000000000000000000602082015250565b6000611e24602683611ce9565b9150611e2f82611dc8565b604082019050919050565b60006020820190508181036000830152611e5381611e17565b9050919050565b600081519050919050565b600082825260208201905092915050565b6000611e8182611e5a565b611e8b8185611e65565b9350611e9b818560208601611b84565b611ea481611ac7565b840191505092915050565b6000608082019050611ec4600083018761170e565b611ed1602083018661174b565b611ede604083018561174b565b8181036060830152611ef08184611e76565b905095945050505050565b6000611f06826116ea565b9050919050565b611f1681611efb565b82525050565b6000606082019050611f316000830186611f0d565b8181036020830152611f438185611e76565b90508181036040830152611f578184611e76565b9050949350505050565b600067ffffffffffffffff821115611f7c57611f7b611ad8565b5b611f8582611ac7565b9050602081019050919050565b6000611fa5611fa084611f61565b611b38565b905082815260208101848484011115611fc157611fc0611ac2565b5b611fcc848285611b84565b509392505050565b600082601f830112611fe957611fe8611abd565b5b8151611ff9848260208601611f92565b91505092915050565b60006020828403121561201857612017611631565b5b600082015167ffffffffffffffff81111561203657612035611636565b5b61204284828501611fd4565b91505092915050565b600060a082019050612060600083018861170e565b61206d602083018761174b565b61207a604083018661174b565b612087606083018561172a565b81810360808301526120998184611e76565b90509695505050505050565b60006060820190506120ba600083018661170e565b6120c7602083018561174b565b6120d4604083018461174b565b949350505050565b6000815190506120eb81611645565b92915050565b60008151905061210081611881565b92915050565b600080600080608085870312156121205761211f611631565b5b600061212e878288016120dc565b945050602061213f878288016120f1565b9350506040612150878288016120dc565b9250506060612161878288016120dc565b91505092959194509250565b7f4f776e61626c653a2063616c6c6572206973206e6f7420746865206f776e6572600082015250565b60006121a3602083611ce9565b91506121ae8261216d565b602082019050919050565b600060208201905081810360008301526121d281612196565b9050919050565b6000819050919050565b6000819050919050565b60008160001b9050919050565b600061221561221061220b846121d9565b6121ed565b6121e3565b9050919050565b612225816121fa565b82525050565b6000602082019050612240600083018461221c565b92915050565b600061225182611739565b9050919050565b61226181612246565b811461226c57600080fd5b50565b60008151905061227e81612258565b92915050565b60006020828403121561229a57612299611631565b5b60006122a88482850161226f565b91505092915050565b7f4e487b7100000000000000000000000000000000000000000000000000000000600052600160045260246000fdfea2646970667358221220ff135b87d59283943efc17c9e8815e584ad2e5544b5bea178bb3bd9db42130dd64736f6c63430008130033",
  "linkReferences": {},
  "deployedLinkReferences": {}
}